{
  "_format": "hh3-artifact-1",
  "contractName": "EventContract",
  "sourceName": "contracts/EventContract.sol",
  "abi": [
    {
      "inputs": [
        {
          "internalType": "address",
          "name": "_organizer",
          "type": "address"
        },
        {
          "internalType": "string",
          "name": "_name",
          "type": "string"
        },
        {
          "internalType": "string",
          "name": "_date",
          "type": "string"
        },
        {
          "internalType": "string",
          "name": "_time",
          "type": "string"
        },
        {
          "internalType": "string",
          "name": "_imageURL",
          "type": "string"
        },
        {
          "internalType": "string",
          "name": "_locationName",
          "type": "string"
        },
        {
          "internalType": "string",
          "name": "_city",
          "type": "string"
        },
        {
          "internalType": "string",
          "name": "_country",
          "type": "string"
        },
        {
          "internalType": "string",
          "name": "_mapsLink",
          "type": "string"
        },
        {
          "internalType": "uint256",
          "name": "_price",
          "type": "uint256"
        },
        {
          "internalType": "uint256",
          "name": "_capacity",
          "type": "uint256"
        },
        {
          "internalType": "uint256",
          "name": "_eventTimestamp",
          "type": "uint256"
        }
      ],
      "stateMutability": "nonpayable",
      "type": "constructor"
    },
    {
      "anonymous": false,
      "inputs": [],
      "name": "EventCancelled",
      "type": "event"
    },
    {
      "anonymous": false,
      "inputs": [
        {
          "indexed": true,
          "internalType": "address",
          "name": "buyer",
          "type": "address"
        },
        {
          "indexed": false,
          "internalType": "uint256",
          "name": "ticketId",
          "type": "uint256"
        }
      ],
      "name": "TicketSold",
      "type": "event"
    },
    {
      "anonymous": false,
      "inputs": [
        {
          "indexed": true,
          "internalType": "address",
          "name": "user",
          "type": "address"
        },
        {
          "indexed": false,
          "internalType": "uint256",
          "name": "timestamp",
          "type": "uint256"
        }
      ],
      "name": "TicketUsed",
      "type": "event"
    },
    {
      "inputs": [],
      "name": "buyTicket",
      "outputs": [],
      "stateMutability": "payable",
      "type": "function"
    },
    {
      "inputs": [],
      "name": "cancelEvent",
      "outputs": [],
      "stateMutability": "nonpayable",
      "type": "function"
    },
    {
      "inputs": [],
      "name": "capacity",
      "outputs": [
        {
          "internalType": "uint256",
          "name": "",
          "type": "uint256"
        }
      ],
      "stateMutability": "view",
      "type": "function"
    },
    {
      "inputs": [],
      "name": "city",
      "outputs": [
        {
          "internalType": "string",
          "name": "",
          "type": "string"
        }
      ],
      "stateMutability": "view",
      "type": "function"
    },
    {
      "inputs": [],
      "name": "country",
      "outputs": [
        {
          "internalType": "string",
          "name": "",
          "type": "string"
        }
      ],
      "stateMutability": "view",
      "type": "function"
    },
    {
      "inputs": [],
      "name": "date",
      "outputs": [
        {
          "internalType": "string",
          "name": "",
          "type": "string"
        }
      ],
      "stateMutability": "view",
      "type": "function"
    },
    {
      "inputs": [],
      "name": "eventTimestamp",
      "outputs": [
        {
          "internalType": "uint256",
          "name": "",
          "type": "uint256"
        }
      ],
      "stateMutability": "view",
      "type": "function"
    },
    {
      "inputs": [],
      "name": "getRefund",
      "outputs": [],
      "stateMutability": "nonpayable",
      "type": "function"
    },
    {
      "inputs": [
        {
          "internalType": "address",
          "name": "",
          "type": "address"
        }
      ],
      "name": "hasTicket",
      "outputs": [
        {
          "internalType": "bool",
          "name": "",
          "type": "bool"
        }
      ],
      "stateMutability": "view",
      "type": "function"
    },
    {
      "inputs": [],
      "name": "imageURL",
      "outputs": [
        {
          "internalType": "string",
          "name": "",
          "type": "string"
        }
      ],
      "stateMutability": "view",
      "type": "function"
    },
    {
      "inputs": [],
      "name": "isCancelled",
      "outputs": [
        {
          "internalType": "bool",
          "name": "",
          "type": "bool"
        }
      ],
      "stateMutability": "view",
      "type": "function"
    },
    {
      "inputs": [
        {
          "internalType": "address",
          "name": "",
          "type": "address"
        }
      ],
      "name": "isRefunded",
      "outputs": [
        {
          "internalType": "bool",
          "name": "",
          "type": "bool"
        }
      ],
      "stateMutability": "view",
      "type": "function"
    },
    {
      "inputs": [
        {
          "internalType": "address",
          "name": "",
          "type": "address"
        }
      ],
      "name": "isTicketUsed",
      "outputs": [
        {
          "internalType": "bool",
          "name": "",
          "type": "bool"
        }
      ],
      "stateMutability": "view",
      "type": "function"
    },
    {
      "inputs": [],
      "name": "locationName",
      "outputs": [
        {
          "internalType": "string",
          "name": "",
          "type": "string"
        }
      ],
      "stateMutability": "view",
      "type": "function"
    },
    {
      "inputs": [],
      "name": "mapsLink",
      "outputs": [
        {
          "internalType": "string",
          "name": "",
          "type": "string"
        }
      ],
      "stateMutability": "view",
      "type": "function"
    },
    {
      "inputs": [],
      "name": "name",
      "outputs": [
        {
          "internalType": "string",
          "name": "",
          "type": "string"
        }
      ],
      "stateMutability": "view",
      "type": "function"
    },
    {
      "inputs": [],
      "name": "organizer",
      "outputs": [
        {
          "internalType": "address",
          "name": "",
          "type": "address"
        }
      ],
      "stateMutability": "view",
      "type": "function"
    },
    {
      "inputs": [],
      "name": "price",
      "outputs": [
        {
          "internalType": "uint256",
          "name": "",
          "type": "uint256"
        }
      ],
      "stateMutability": "view",
      "type": "function"
    },
    {
      "inputs": [],
      "name": "soldCount",
      "outputs": [
        {
          "internalType": "uint256",
          "name": "",
          "type": "uint256"
        }
      ],
      "stateMutability": "view",
      "type": "function"
    },
    {
      "inputs": [],
      "name": "time",
      "outputs": [
        {
          "internalType": "string",
          "name": "",
          "type": "string"
        }
      ],
      "stateMutability": "view",
      "type": "function"
    },
    {
      "inputs": [
        {
          "internalType": "address",
          "name": "user",
          "type": "address"
        }
      ],
      "name": "useTicket",
      "outputs": [],
      "stateMutability": "nonpayable",
      "type": "function"
    },
    {
      "inputs": [],
      "name": "withdraw",
      "outputs": [],
      "stateMutability": "nonpayable",
      "type": "function"
    }
  ],
  "bytecode": "0x60806040523462000cb15762001f06803803806200001d8162000cb5565b9283398101906101808183031262000cb15780516001600160a01b038116919082900362000cb15760208101516001600160401b03811162000cb157836200006791830162000cdb565b60408201516001600160401b03811162000cb157846200008991840162000cdb565b60608301519094906001600160401b03811162000cb15781620000ae91850162000cdb565b60808401516001600160401b03811162000cb15782620000d091860162000cdb565b60a08501516001600160401b03811162000cb15783620000f291870162000cdb565b60c08601519093906001600160401b03811162000cb157816200011791880162000cdb565b60e08701516001600160401b03811162000cb157826200013991890162000cdb565b61010088015190926001600160401b03821162000cb1576200015d91890162000cdb565b61012088015161014089015161016090990151600d805460ff191690555f80546001600160a01b031916909b17909a558751919a90979091906001600160401b038211620009d75760015490600182811c9216801562000ca6575b602083101462000ab45781601f84931162000c45575b50602090601f831160011462000bce575f9262000bc2575b50508160011b915f199060031b1c1916176001555b8051906001600160401b038211620009d75760025490600182811c9216801562000bb7575b602083101462000ab45781601f84931162000b56575b50602090601f831160011462000adf575f9262000ad3575b50508160011b915f199060031b1c1916176002555b83516001600160401b038111620009d757600394855490600182811c9216801562000ac8575b602083101462000ab45781601f84931162000a5f575b50602090601f8311600114620009f7575f92620009eb575b50508160011b915f1990871b1c19161784555b82516001600160401b038111620009d7576004938454600181811c91168015620009cc575b6020821014620008e5579081601f84931162000977575b50602090601f83116001146200090f575f9262000903575b50508160011b915f1990871b1c19161783555b84516001600160401b0381116200080b576005958654600181811c91168015620008f8575b6020821014620008e5579081601f84931162000892575b50602090601f83116001146200082a575f926200081e575b50508160011b915f1990871b1c19161785555b8051906001600160401b0382116200080b57600654600181811c9116801562000800575b6020821014620007ed579081601f8493116200078e575b50602090601f831160011462000718575f926200070c575b50508160011b915f1990861b1c1916176006555b8051906001600160401b038211620006f957600754600181811c91168015620006ee575b6020821014620006db579081601f8493116200067c575b50602090601f831160011462000606575f92620005fa575b50508160011b915f1990851b1c1916176007555b8651926001600160401b038411620005e75760085491600183811c93168015620005dc575b6020841014620005c95750601f821162000585575b50506020601f8311600114620004f95782939495965f93620004ed575b50508260011b925f19911b1c1916176008555b600955600a555f600b55600c5560405161113a908162000d4c8239f35b015191505f80620004bd565b60085f9081527ff3f7a9fe364faab93b216da50a3214154f22a0a2b415b23a84c8169e8b636ee3929190601f198516905b8181106200056c575097846001969798991062000552575b50505050811b01600855620004d0565b01519060f8845f19921b161c191690555f80808062000542565b9193602060018192878d0151815501950192016200052a565b60085f5260205f2090601f8501811c82019260208610620005be575b601f01901c01905b81811015620004a0575f8155600101620005a9565b9192508291620005a1565b602290634e487b7160e01b5f525260245ffd5b92607f16926200048b565b604182634e487b7160e01b5f525260245ffd5b015190505f8062000452565b60075f9081525f8051602062001ea68339815191529350601f198516905b8181106200066357509084600195949392106200064b575b505050811b0160075562000466565b01515f1983871b60f8161c191690555f80806200063c565b9293602060018192878601518155019501930162000624565b60075f529091505f8051602062001ea6833981519152601f8401871c81019160208510620006d0575b90601f8594939201881c01905b818110620006c157506200043a565b5f8155849350600101620006b2565b9091508190620006a5565b602284634e487b7160e01b5f525260245ffd5b90607f169062000423565b604183634e487b7160e01b5f525260245ffd5b015190505f80620003eb565b60065f9081525f8051602062001ee68339815191529350601f198516905b8181106200077557509084600195949392106200075d575b505050811b01600655620003ff565b01515f1983881b60f8161c191690555f80806200074e565b9293602060018192878601518155019501930162000736565b60065f529091505f8051602062001ee6833981519152601f8401881c81019160208510620007e2575b90601f8594939201891c01905b818110620007d35750620003d3565b5f8155849350600101620007c4565b9091508190620007b7565b602285634e487b7160e01b5f525260245ffd5b90607f1690620003bc565b604184634e487b7160e01b5f525260245ffd5b015190505f8062000385565b5f898152602081209350601f198516905b81811062000879575090846001959493921062000861575b505050811b01855562000398565b01515f1983891b60f8161c191690555f808062000853565b929360206001819287860151815501950193016200083b565b909150875f5260205f20601f8401891c81019160208510620008da575b90601f85949392018a1c01905b818110620008cb57506200036d565b5f8155849350600101620008bc565b9091508190620008af565b602286634e487b7160e01b5f525260245ffd5b90607f169062000356565b015190505f806200031e565b5f878152602081209350601f198516905b8181106200095e575090846001959493921062000946575b505050811b01835562000331565b01515f1983891b60f8161c191690555f808062000938565b9293602060018192878601518155019501930162000920565b909150855f5260205f20601f840160051c81019160208510620009c1575b90601f859493920160051c01905b818110620009b2575062000306565b5f8155849350600101620009a3565b909150819062000995565b90607f1690620002ef565b634e487b7160e01b5f52604160045260245ffd5b015190505f80620002b7565b5f888152602081209350601f198516905b81811062000a46575090846001959493921062000a2e575b505050811b018455620002ca565b01515f1983891b60f8161c191690555f808062000a20565b9293602060018192878601518155019501930162000a08565b909150865f5260205f20601f840160051c8101916020851062000aa9575b90601f859493920160051c01905b81811062000a9a57506200029f565b5f815584935060010162000a8b565b909150819062000a7d565b634e487b7160e01b5f52602260045260245ffd5b91607f169162000289565b015190505f806200024e565b60025f9081525f8051602062001e868339815191529350601f198516905b81811062000b3d575090846001959493921062000b24575b505050811b0160025562000263565b01515f1960f88460031b161c191690555f808062000b15565b9293602060018192878601518155019501930162000afd565b60025f529091505f8051602062001e86833981519152601f840160051c8101916020851062000bac575b90601f859493920160051c01905b81811062000b9d575062000236565b5f815584935060010162000b8e565b909150819062000b80565b91607f169162000220565b015190505f80620001e6565b60015f9081525f8051602062001ec68339815191529350601f198516905b81811062000c2c575090846001959493921062000c13575b505050811b01600155620001fb565b01515f1960f88460031b161c191690555f808062000c04565b9293602060018192878601518155019501930162000bec565b60015f529091505f8051602062001ec6833981519152601f840160051c8101916020851062000c9b575b90601f859493920160051c01905b81811062000c8c5750620001ce565b5f815584935060010162000c7d565b909150819062000c6f565b91607f1691620001b8565b5f80fd5b6040519190601f01601f191682016001600160401b03811183821017620009d757604052565b919080601f8401121562000cb15782516001600160401b038111620009d75760209062000d11601f8201601f1916830162000cb5565b9281845282828701011162000cb1575f5b81811062000d375750825f9394955001015290565b858101830151848201840152820162000d2256fe608060409080825260049081361015610016575f80fd5b5f3560e01c90816306fdde0314610f4c5750806316ada54714610e70578063323046b114610d9457806339f9c82c14610d765780633ccfd60b14610c795780635920d29614610c3a5780635cfc1a5114610c1c5780636120326514610bf557806395ee122114610bd2578063a035b1fe14610bb4578063ac21ab7f14610ad8578063b202dcbb146109fc578063b2d5ae4414610888578063b90497e0146107af578063bce2255714610791578063d0bb064814610628578063d8b0b4991461054c578063e2142fde1461050d578063edca914c14610357578063fb6c953714610277578063fd0160fe146101545763ffc9152e14610112575f80fd5b3461015057602036600319011261015057356001600160a01b0381169190829003610150576020915f52600f825260ff815f20541690519015158152f35b5f80fd5b509034610150575f366003190112610150578051905f60065460018160011c906001831692831561026d575b602093848410811461025a5783885290811561023e57506001146101e8575b505050829003601f01601f191682019267ffffffffffffffff8411838510176101d557508291826101d1925282611042565b0390f35b604190634e487b7160e01b5f525260245ffd5b60065f908152929350837ff652222313e28459528d920b65115c16c04f3efc82aaedc97be59f3f377c0d3f5b83851061022a57505050508301015f808061019f565b805488860183015293019284908201610214565b60ff1916878501525050151560051b84010190505f808061019f565b602289634e487b7160e01b5f525260245ffd5b91607f1691610180565b5034610150575f3660031901126101505761029c60018060a01b035f54163314611089565b600d549160ff831661032657600c544210156102e35760ff198316600117600d557fc423524f667a9459893f10159c8a95981a43fb77edd414f6325d8439604ad4185f80a1005b906020606492519162461bcd60e51b8352820152601e60248201527f4765636d69732065746b696e6c696b20697074616c206564696c656d657a00006044820152fd5b906020606492519162461bcd60e51b8352820152600b60248201526a16985d195b881a5c1d185b60aa1b6044820152fd5b505f3660031901126101505761037260ff600d5416156110c0565b600c544210156104ba57600954340361048857600b54600a54111561046057335f52602090600e825260ff835f20541661042b57335f52600e8252825f2060ff1990600182825416179055600f8352835f2081815416905560108352835f20908154169055600b54905f19821461041857509060017f8ef92257fbc070823c8bb4051ff3a58b831946d893fbb1bfd9bc77b87ff77d0992019283600b55519283523392a2005b601190634e487b7160e01b5f525260245ffd5b915162461bcd60e51b81529182015260116024820152702d30ba32b7103134b632ba34b7103b30b960791b6044820152606490fd5b606491519062461bcd60e51b8252602081830152602482015263446f6c7560e01b6044820152fd5b6020606492519162461bcd60e51b8352820152600d60248201526c2cb0b73634b99036b4b5ba30b960991b6044820152fd5b6020608492519162461bcd60e51b8352820152602860248201527f53617469736c6172206b6170616e64692c2065746b696e6c696b206261736c6160448201526764692f626974746960c01b6064820152fd5b503461015057602036600319011261015057356001600160a01b0381169190829003610150576020915f52600e825260ff815f20541690519015158152f35b509034610150575f366003190112610150578051905f60075460018160011c906001831692831561061e575b602093848410811461025a5783885290811561023e57506001146105c857505050829003601f01601f191682019267ffffffffffffffff8411838510176101d557508291826101d1925282611042565b60075f908152929350837fa66cc928b5edb82af9bd49922954155ab7b0942694bea4ce44661d9a8736c6885b83851061060a57505050508301015f808061019f565b8054888601830152930192849082016105f4565b91607f1691610578565b5034610150576020806003193601126101505781356001600160a01b038181169391849003610150575f541633036107505761066960ff600d5416156110c0565b825f52600e825260ff845f2054161561070f57825f526010825260ff845f2054166106ce575081927f108a46e5e0e67b88292a0674cb6edf9da3b41ad04c8cd52a738ff591ce32443a925f5260108252805f20600160ff1982541617905551428152a2005b60649184519162461bcd60e51b8352820152601760248201527f42696c6574207a6174656e206b756c6c616e696c6d69730000000000000000006044820152fd5b60649184519162461bcd60e51b8352820152601a60248201527f4275206b756c6c616e6963696e696e2062696c65746920796f6b0000000000006044820152fd5b60649184519162461bcd60e51b8352820152601f60248201527f536164656365206f7267616e697a61746f72206b756c6c616e6162696c6972006044820152fd5b8234610150575f36600319011261015057602090600c549051908152f35b509034610150575f366003190112610150578051905f835460018160011c906001831692831561087e575b602093848410811461025a5783885290811561023e575060011461082a57505050829003601f01601f191682019267ffffffffffffffff8411838510176101d557508291826101d1925282611042565b5f878152929350837f8a35acfbc15ff81a39ae7d344fd709f28e8600b4aa8c65c6b64bfe7fe36bd19b5b83851061086a57505050508301015f808061019f565b805488860183015293019284908201610854565b91607f16916107da565b5034610150575f3660031901126101505760ff600d5416156109cc57335f52602090600e825260ff835f2054161561099e57335f526010825260ff835f20541661095d57335f52600f825260ff835f20541661092e5750335f52600f8152600e825f209160ff199260018482541617905552815f209081541690555f808080600954818115610925575b3390f11561091c57005b513d5f823e3d90fd5b506108fc610912565b915162461bcd60e51b815291820152600b60248201526a4961646520616c696e646960a81b6044820152606490fd5b915162461bcd60e51b815291820152601d60248201527f42696c6574206b756c6c616e696c6d69732c2069616465206f6c6d617a0000006044820152606490fd5b915162461bcd60e51b815291820152600a60248201526942696c65746920796f6b60b01b6044820152606490fd5b6020606492519162461bcd60e51b8352820152600b60248201526a125c1d185b08191959da5b60aa1b6044820152fd5b509034610150575f366003190112610150578051905f60055460018160011c9060018316928315610ace575b602093848410811461025a5783885290811561023e5750600114610a7857505050829003601f01601f191682019267ffffffffffffffff8411838510176101d557508291826101d1925282611042565b60055f908152929350837f036b6384b5eca791c62761152d0c79bb0604c104a5fb6f4eb0703f3154bb3db05b838510610aba57505050508301015f808061019f565b805488860183015293019284908201610aa4565b91607f1691610a28565b509034610150575f366003190112610150578051905f60085460018160011c9060018316928315610baa575b602093848410811461025a5783885290811561023e5750600114610b5457505050829003601f01601f191682019267ffffffffffffffff8411838510176101d557508291826101d1925282611042565b60085f908152929350837ff3f7a9fe364faab93b216da50a3214154f22a0a2b415b23a84c8169e8b636ee35b838510610b9657505050508301015f808061019f565b805488860183015293019284908201610b80565b91607f1691610b04565b8234610150575f366003190112610150576020906009549051908152f35b8234610150575f3660031901126101505760209060ff600d541690519015158152f35b8234610150575f366003190112610150575f5490516001600160a01b039091168152602090f35b8234610150575f36600319011261015057602090600a549051908152f35b503461015057602036600319011261015057356001600160a01b0381169190829003610150576020915f526010825260ff815f20541690519015158152f35b5034610150575f366003190112610150575f546001600160a01b031690610ca1338314611089565b60ff600d5416610d2357600c54421115610cd657505f808080934790828215610ccd575bf11561091c57005b506108fc610cc5565b608490602084519162461bcd60e51b8352820152602160248201527f45746b696e6c696b206269746d6564656e20706172612063656b696c656d657a6044820152602160f81b6064820152fd5b608490602084519162461bcd60e51b8352820152602760248201527f45746b696e6c696b20697074616c206564696c6d69732c20706172612063656b604482015266696c656d657a2160c81b6064820152fd5b8234610150575f36600319011261015057602090600b549051908152f35b509034610150575f366003190112610150578051905f60025460018160011c9060018316928315610e66575b602093848410811461025a5783885290811561023e5750600114610e1057505050829003601f01601f191682019267ffffffffffffffff8411838510176101d557508291826101d1925282611042565b60025f908152929350837f405787fa12a823e0f2b7631cc41b3ba8828b3321ca811111fa75cd3aa3bb5ace5b838510610e5257505050508301015f808061019f565b805488860183015293019284908201610e3c565b91607f1691610dc0565b509034610150575f366003190112610150578051905f60035460018160011c9060018316928315610f42575b602093848410811461025a5783885290811561023e5750600114610eec57505050829003601f01601f191682019267ffffffffffffffff8411838510176101d557508291826101d1925282611042565b60035f908152929350837fc2575a0e9e593c00f959f8c92f12db2869c3395a3b0502d05e2516446f71f85b5b838510610f2e57505050508301015f808061019f565b805488860183015293019284908201610f18565b91607f1691610e9c565b90508234610150575f366003190112610150575f60018054908160011c9060018316928315611038575b602093848410811461025a5783885290811561101c5750600114610fc657505050829003601f01601f191682019267ffffffffffffffff8411838510176101d557508291826101d1925282611042565b60015f908152929350837fb10e2d527612073b26eecdfd717e6a320cf44b4afac2b0732d9fcbe2b7fa0cf65b838510611008575050505083010184808061019f565b805488860183015293019284908201610ff2565b60ff1916878501525050151560051b840101905084808061019f565b91607f1691610f76565b602080825282518183018190529093925f5b82811061107557505060409293505f838284010152601f8019910116010190565b818101860151848201604001528501611054565b1561109057565b60405162461bcd60e51b81526020600482015260086024820152672cb2ba35b4b9b4bd60c11b6044820152606490fd5b156110c757565b60405162461bcd60e51b815260206004820152601560248201527445746b696e6c696b20697074616c206564696c646960581b6044820152606490fdfea26469706673582212209df05605ce902134031e9734a1f0c9609ecce58be83b6b76490c5e7f390e323364736f6c63430008170033405787fa12a823e0f2b7631cc41b3ba8828b3321ca811111fa75cd3aa3bb5acea66cc928b5edb82af9bd49922954155ab7b0942694bea4ce44661d9a8736c688b10e2d527612073b26eecdfd717e6a320cf44b4afac2b0732d9fcbe2b7fa0cf6f652222313e28459528d920b65115c16c04f3efc82aaedc97be59f3f377c0d3f",
  "linkReferences": {},
  "deployedLinkReferences": {},
  "immutableReferences": {},
  "inputSourceName": "project/contracts/EventContract.sol",
  "buildInfoId": "solc-0_8_23-7ec6890cbf368b8f861697b15e12f230722efef7"
}