{
  "_format": "hh3-artifact-1",
  "contractName": "EventContract",
  "sourceName": "contracts/EventContract.sol",
  "abi": [
    {
      "inputs": [
        {
          "internalType": "address",
          "name": "_organizer",
          "type": "address"
        },
        {
          "internalType": "string",
          "name": "_name",
          "type": "string"
        },
        {
          "internalType": "string",
          "name": "_date",
          "type": "string"
        },
        {
          "internalType": "string",
          "name": "_time",
          "type": "string"
        },
        {
          "internalType": "string",
          "name": "_imageURL",
          "type": "string"
        },
        {
          "internalType": "string",
          "name": "_locationName",
          "type": "string"
        },
        {
          "internalType": "string",
          "name": "_city",
          "type": "string"
        },
        {
          "internalType": "string",
          "name": "_country",
          "type": "string"
        },
        {
          "internalType": "string",
          "name": "_mapsLink",
          "type": "string"
        },
        {
          "internalType": "uint256",
          "name": "_price",
          "type": "uint256"
        },
        {
          "internalType": "uint256",
          "name": "_capacity",
          "type": "uint256"
        },
        {
          "internalType": "uint256",
          "name": "_eventTimestamp",
          "type": "uint256"
        }
      ],
      "stateMutability": "nonpayable",
      "type": "constructor"
    },
    {
      "anonymous": false,
      "inputs": [],
      "name": "EventCancelled",
      "type": "event"
    },
    {
      "anonymous": false,
      "inputs": [
        {
          "indexed": true,
          "internalType": "address",
          "name": "buyer",
          "type": "address"
        },
        {
          "indexed": false,
          "internalType": "uint256",
          "name": "ticketId",
          "type": "uint256"
        }
      ],
      "name": "TicketSold",
      "type": "event"
    },
    {
      "anonymous": false,
      "inputs": [
        {
          "indexed": true,
          "internalType": "address",
          "name": "user",
          "type": "address"
        },
        {
          "indexed": false,
          "internalType": "uint256",
          "name": "timestamp",
          "type": "uint256"
        }
      ],
      "name": "TicketUsed",
      "type": "event"
    },
    {
      "inputs": [],
      "name": "buyTicket",
      "outputs": [],
      "stateMutability": "payable",
      "type": "function"
    },
    {
      "inputs": [],
      "name": "cancelEvent",
      "outputs": [],
      "stateMutability": "nonpayable",
      "type": "function"
    },
    {
      "inputs": [],
      "name": "capacity",
      "outputs": [
        {
          "internalType": "uint256",
          "name": "",
          "type": "uint256"
        }
      ],
      "stateMutability": "view",
      "type": "function"
    },
    {
      "inputs": [],
      "name": "city",
      "outputs": [
        {
          "internalType": "string",
          "name": "",
          "type": "string"
        }
      ],
      "stateMutability": "view",
      "type": "function"
    },
    {
      "inputs": [],
      "name": "country",
      "outputs": [
        {
          "internalType": "string",
          "name": "",
          "type": "string"
        }
      ],
      "stateMutability": "view",
      "type": "function"
    },
    {
      "inputs": [],
      "name": "date",
      "outputs": [
        {
          "internalType": "string",
          "name": "",
          "type": "string"
        }
      ],
      "stateMutability": "view",
      "type": "function"
    },
    {
      "inputs": [],
      "name": "eventTimestamp",
      "outputs": [
        {
          "internalType": "uint256",
          "name": "",
          "type": "uint256"
        }
      ],
      "stateMutability": "view",
      "type": "function"
    },
    {
      "inputs": [],
      "name": "getRefund",
      "outputs": [],
      "stateMutability": "nonpayable",
      "type": "function"
    },
    {
      "inputs": [
        {
          "internalType": "address",
          "name": "",
          "type": "address"
        }
      ],
      "name": "hasTicket",
      "outputs": [
        {
          "internalType": "bool",
          "name": "",
          "type": "bool"
        }
      ],
      "stateMutability": "view",
      "type": "function"
    },
    {
      "inputs": [],
      "name": "imageURL",
      "outputs": [
        {
          "internalType": "string",
          "name": "",
          "type": "string"
        }
      ],
      "stateMutability": "view",
      "type": "function"
    },
    {
      "inputs": [],
      "name": "isCancelled",
      "outputs": [
        {
          "internalType": "bool",
          "name": "",
          "type": "bool"
        }
      ],
      "stateMutability": "view",
      "type": "function"
    },
    {
      "inputs": [
        {
          "internalType": "address",
          "name": "",
          "type": "address"
        }
      ],
      "name": "isRefunded",
      "outputs": [
        {
          "internalType": "bool",
          "name": "",
          "type": "bool"
        }
      ],
      "stateMutability": "view",
      "type": "function"
    },
    {
      "inputs": [
        {
          "internalType": "address",
          "name": "",
          "type": "address"
        }
      ],
      "name": "isTicketUsed",
      "outputs": [
        {
          "internalType": "bool",
          "name": "",
          "type": "bool"
        }
      ],
      "stateMutability": "view",
      "type": "function"
    },
    {
      "inputs": [],
      "name": "locationName",
      "outputs": [
        {
          "internalType": "string",
          "name": "",
          "type": "string"
        }
      ],
      "stateMutability": "view",
      "type": "function"
    },
    {
      "inputs": [],
      "name": "mapsLink",
      "outputs": [
        {
          "internalType": "string",
          "name": "",
          "type": "string"
        }
      ],
      "stateMutability": "view",
      "type": "function"
    },
    {
      "inputs": [],
      "name": "name",
      "outputs": [
        {
          "internalType": "string",
          "name": "",
          "type": "string"
        }
      ],
      "stateMutability": "view",
      "type": "function"
    },
    {
      "inputs": [],
      "name": "organizer",
      "outputs": [
        {
          "internalType": "address",
          "name": "",
          "type": "address"
        }
      ],
      "stateMutability": "view",
      "type": "function"
    },
    {
      "inputs": [],
      "name": "price",
      "outputs": [
        {
          "internalType": "uint256",
          "name": "",
          "type": "uint256"
        }
      ],
      "stateMutability": "view",
      "type": "function"
    },
    {
      "inputs": [],
      "name": "soldCount",
      "outputs": [
        {
          "internalType": "uint256",
          "name": "",
          "type": "uint256"
        }
      ],
      "stateMutability": "view",
      "type": "function"
    },
    {
      "inputs": [],
      "name": "time",
      "outputs": [
        {
          "internalType": "string",
          "name": "",
          "type": "string"
        }
      ],
      "stateMutability": "view",
      "type": "function"
    },
    {
      "inputs": [
        {
          "internalType": "address",
          "name": "user",
          "type": "address"
        }
      ],
      "name": "useTicket",
      "outputs": [],
      "stateMutability": "nonpayable",
      "type": "function"
    },
    {
      "inputs": [],
      "name": "withdraw",
      "outputs": [],
      "stateMutability": "nonpayable",
      "type": "function"
    }
  ],
  "bytecode": "0x60806040523462000d135762001f84803803806200001d8162000d18565b9283398101906101808183031262000d135780516001600160a01b038116919082900362000d135760208101516001600160401b03811162000d1357836200006791830162000d3e565b60408201516001600160401b03811162000d1357846200008991840162000d3e565b60608301519094906001600160401b03811162000d135781620000ae91850162000d3e565b60808401516001600160401b03811162000d135782620000d091860162000d3e565b60a08501516001600160401b03811162000d135783620000f291870162000d3e565b60c08601519091906001600160401b03811162000d1357846200011791880162000d3e565b60e08701519093906001600160401b03811162000d1357856200013c91890162000d3e565b61010088015190956001600160401b03821162000d13576200016091890162000d3e565b61012088015161014089015161016090990151600d805460ff19169055600080546001600160a01b031916909b17909a558751919a90979091906001600160401b0382116200060b5760015490600182811c9216801562000d08575b6020831014620005ea5781601f84931162000ca7575b50602090601f831160011462000c295760009262000c1d575b50508160011b916000199060031b1c1916176001555b8051906001600160401b0382116200060b5760025490600182811c9216801562000c12575b6020831014620005ea5781601f84931162000bb1575b50602090601f831160011462000b375760009262000b2b575b50508160011b916000199060031b1c1916176002555b8051906001600160401b0382116200060b5760035490600182811c9216801562000b20575b6020831014620005ea5781601f84931162000aae575b50602090601f831160011462000a235760009262000a17575b50508160011b916000199060031b1c1916176003555b8051906001600160401b0382116200060b5760045490600182811c9216801562000a0c575b6020831014620005ea5781601f8493116200099a575b50602090601f83116001146200090f5760009262000903575b50508160011b916000199060031b1c1916176004555b8051906001600160401b0382116200060b5760055490600182811c92168015620008f8575b6020831014620005ea5781601f849311620008a2575b50602090601f831160011462000817576000926200080b575b50508160011b916000199060031b1c1916176005555b8051906001600160401b0382116200060b5760065490600182811c9216801562000800575b6020831014620005ea5781601f8493116200079c575b50602090601f8311600114620007225760009262000716575b50508160011b916000199060031b1c1916176006555b8051906001600160401b0382116200060b5760075490600182811c921680156200070b575b6020831014620005ea5781601f849311620006a7575b50602090601f83116001146200062d5760009262000621575b50508160011b916000199060031b1c1916176007555b83516001600160401b0381116200060b57600854600181811c9116801562000600575b6020821014620005ea57601f811162000580575b50602094601f8211600114620005135794819293949560009262000507575b50508160011b916000199060031b1c1916176008555b600955600a556000600b55600c55604051611153908162000db18239f35b015190503880620004d3565b601f19821695600860005260206000209160005b88811062000567575083600195969798106200054d575b505050811b01600855620004e9565b015160001960f88460031b161c191690553880806200053e565b9192602060018192868501518155019401920162000527565b60086000527ff3f7a9fe364faab93b216da50a3214154f22a0a2b415b23a84c8169e8b636ee3601f830160051c81019160208410620005df575b601f0160051c01905b818110620005d25750620004b4565b60008155600101620005c3565b9091508190620005ba565b634e487b7160e01b600052602260045260246000fd5b90607f1690620004a0565b634e487b7160e01b600052604160045260246000fd5b01519050388062000467565b6007600090815260008051602062001f248339815191529350601f198516905b8181106200068e575090846001959493921062000674575b505050811b016007556200047d565b015160001960f88460031b161c1916905538808062000665565b929360206001819287860151815501950193016200064d565b600760005290915060008051602062001f24833981519152601f840160051c8101916020851062000700575b90601f859493920160051c01905b818110620006f057506200044e565b60008155849350600101620006e1565b9091508190620006d3565b91607f169162000438565b015190503880620003fd565b6006600090815260008051602062001f648339815191529350601f198516905b81811062000783575090846001959493921062000769575b505050811b0160065562000413565b015160001960f88460031b161c191690553880806200075a565b9293602060018192878601518155019501930162000742565b600660005290915060008051602062001f64833981519152601f840160051c81019160208510620007f5575b90601f859493920160051c01905b818110620007e55750620003e4565b60008155849350600101620007d6565b9091508190620007c8565b91607f1691620003ce565b01519050388062000393565b600560009081527f036b6384b5eca791c62761152d0c79bb0604c104a5fb6f4eb0703f3154bb3db09350601f198516905b8181106200088957509084600195949392106200086f575b505050811b01600555620003a9565b015160001960f88460031b161c1916905538808062000860565b9293602060018192878601518155019501930162000848565b90915060056000526020600020601f840160051c810160208510620008f0575b90849392915b601f830160051c82018110620008e05750506200037a565b60008155859450600101620008c8565b5080620008c2565b91607f169162000364565b01519050388062000329565b600460009081527f8a35acfbc15ff81a39ae7d344fd709f28e8600b4aa8c65c6b64bfe7fe36bd19b9350601f198516905b81811062000981575090846001959493921062000967575b505050811b016004556200033f565b015160001960f88460031b161c1916905538808062000958565b9293602060018192878601518155019501930162000940565b60046000529091507f8a35acfbc15ff81a39ae7d344fd709f28e8600b4aa8c65c6b64bfe7fe36bd19b601f840160051c81016020851062000a04575b90849392915b601f830160051c82018110620009f457505062000310565b60008155859450600101620009dc565b5080620009d6565b91607f1691620002fa565b015190503880620002bf565b600360009081527fc2575a0e9e593c00f959f8c92f12db2869c3395a3b0502d05e2516446f71f85b9350601f198516905b81811062000a95575090846001959493921062000a7b575b505050811b01600355620002d5565b015160001960f88460031b161c1916905538808062000a6c565b9293602060018192878601518155019501930162000a54565b60036000529091507fc2575a0e9e593c00f959f8c92f12db2869c3395a3b0502d05e2516446f71f85b601f840160051c81016020851062000b18575b90849392915b601f830160051c8201811062000b08575050620002a6565b6000815585945060010162000af0565b508062000aea565b91607f169162000290565b01519050388062000255565b6002600090815260008051602062001f048339815191529350601f198516905b81811062000b98575090846001959493921062000b7e575b505050811b016002556200026b565b015160001960f88460031b161c1916905538808062000b6f565b9293602060018192878601518155019501930162000b57565b600260005290915060008051602062001f04833981519152601f840160051c81016020851062000c0a575b90849392915b601f830160051c8201811062000bfa5750506200023c565b6000815585945060010162000be2565b508062000bdc565b91607f169162000226565b015190503880620001eb565b60016000908152935060008051602062001f4483398151915291905b601f198416851062000c8b576001945083601f1981161062000c71575b505050811b0160015562000201565b015160001960f88460031b161c1916905538808062000c62565b8181015183556020948501946001909301929091019062000c45565b600160005290915060008051602062001f44833981519152601f840160051c81016020851062000d00575b90849392915b601f830160051c8201811062000cf0575050620001d2565b6000815585945060010162000cd8565b508062000cd2565b91607f1691620001bc565b600080fd5b6040519190601f01601f191682016001600160401b038111838210176200060b57604052565b919080601f8401121562000d135782516001600160401b0381116200060b5760209062000d74601f8201601f1916830162000d18565b9281845282828701011162000d135760005b81811062000d9c57508260009394955001015290565b858101830151848201840152820162000d8656fe6080604081815260048036101561001557600080fd5b600092833560e01c90816306fdde0314610f655750806316ada54714610e8a578063323046b114610daf57806339f9c82c14610d905780633ccfd60b14610c915780635920d29614610c535780635cfc1a5114610c345780636120326514610c0c57806395ee122114610be8578063a035b1fe14610bc9578063ac21ab7f14610aee578063b202dcbb14610a13578063b2d5ae441461089c578063b90497e0146107c3578063bce22557146107a4578063d0bb064814610630578063d8b0b49914610555578063e2142fde14610517578063edca914c1461035e578063fb6c95371461027c578063fd0160fe146101565763ffc9152e1461011557600080fd5b3461015257602036600319011261015257356001600160a01b0381169081900361015257818360ff9260209552600f855220541690519015158152f35b8280fd5b5091903461027857816003193601126102785780519082600654600181811c9080831692831561026e575b602093848410811461025b5783885290811561023f57506001146101e9575b505050829003601f01601f191682019267ffffffffffffffff8411838510176101d657508291826101d2925282611059565b0390f35b634e487b7160e01b815260418552602490fd5b600687529192508591837ff652222313e28459528d920b65115c16c04f3efc82aaedc97be59f3f377c0d3f5b83851061022b57505050508301013880806101a0565b805488860183015293019284908201610215565b60ff1916878501525050151560051b84010190503880806101a0565b634e487b7160e01b895260228a52602489fd5b91607f1691610181565b5080fd5b50346101525782600319360112610152576102a160018060a01b0384541633146110e6565b600d549160ff831661032d57600c544210156102ea5760ff198316600117600d55837fc423524f667a9459893f10159c8a95981a43fb77edd414f6325d8439604ad4188180a180f35b906020606492519162461bcd60e51b8352820152601e60248201527f4765636d69732065746b696e6c696b20697074616c206564696c656d657a00006044820152fd5b906020606492519162461bcd60e51b8352820152600b60248201526a16985d195b881a5c1d185b60aa1b6044820152fd5b509190816003193601126102785761037b60ff600d5416156110a2565b600c544210156104c457600954340361049257600b54600a541115610469573382526020600e815260ff828420541661043357338352600e815281832060ff1990600182825416179055600f825282842081815416905560108252828420908154169055600b546000198114610420579060017f8ef92257fbc070823c8bb4051ff3a58b831946d893fbb1bfd9bc77b87ff77d0992019283600b55519283523392a280f35b634e487b7160e01b845260118552602484fd5b8390606492519162461bcd60e51b835282015260116024820152702d30ba32b7103134b632ba34b7103b30b960791b6044820152fd5b5162461bcd60e51b81526020818401526024810183905263446f6c7560e01b6044820152606490fd5b5162461bcd60e51b8152602081840152600d60248201526c2cb0b73634b99036b4b5ba30b960991b6044820152606490fd5b5162461bcd60e51b8152602081840152602860248201527f53617469736c6172206b6170616e64692c2065746b696e6c696b206261736c6160448201526764692f626974746960c01b6064820152608490fd5b503461015257602036600319011261015257356001600160a01b0381169081900361015257818360ff9260209552600e855220541690519015158152f35b5091903461027857816003193601126102785780519082600754600181811c90808316928315610626575b602093848410811461025b5783885290811561023f57506001146105d057505050829003601f01601f191682019267ffffffffffffffff8411838510176101d657508291826101d2925282611059565b600787529192508591837fa66cc928b5edb82af9bd49922954155ab7b0942694bea4ce44661d9a8736c6885b83851061061257505050508301013880806101a0565b8054888601830152930192849082016105fc565b91607f1691610580565b50903461015257602090816003193601126107a05782356001600160a01b03818116949185900361079c57855416330361075b5761067360ff600d5416156110a2565b838552600e835260ff82862054161561071a578385526010835260ff82862054166106d9575082845260108252808420805460ff19166001179055514281527f108a46e5e0e67b88292a0674cb6edf9da3b41ad04c8cd52a738ff591ce32443a9190a280f35b82606492519162461bcd60e51b8352820152601760248201527f42696c6574207a6174656e206b756c6c616e696c6d69730000000000000000006044820152fd5b82606492519162461bcd60e51b8352820152601a60248201527f4275206b756c6c616e6963696e696e2062696c65746920796f6b0000000000006044820152fd5b82606492519162461bcd60e51b8352820152601f60248201527f536164656365206f7267616e697a61746f72206b756c6c616e6162696c6972006044820152fd5b8580fd5b8380fd5b505034610278578160031936011261027857602090600c549051908152f35b50919034610278578160031936011261027857805190828454600181811c90808316928315610892575b602093848410811461025b5783885290811561023f575060011461083d57505050829003601f01601f191682019267ffffffffffffffff8411838510176101d657508291826101d2925282611059565b8787529192508591837f8a35acfbc15ff81a39ae7d344fd709f28e8600b4aa8c65c6b64bfe7fe36bd19b5b83851061087e57505050508301013880806101a0565b805488860183015293019284908201610868565b91607f16916107ed565b503461015257826003193601126101525760ff600d5416156109e357338352602090600e825260ff8385205416156109b5573384526010825260ff838520541661097457338452600f825260ff83852054166109455750338352600f8152600e8284209160ff1992600184825416179055528183209081541690558180808060095481811561093c575b3390f115610932575080f35b51903d90823e3d90fd5b506108fc610926565b915162461bcd60e51b815291820152600b60248201526a4961646520616c696e646960a81b6044820152606490fd5b915162461bcd60e51b815291820152601d60248201527f42696c6574206b756c6c616e696c6d69732c2069616465206f6c6d617a0000006044820152606490fd5b915162461bcd60e51b815291820152600a60248201526942696c65746920796f6b60b01b6044820152606490fd5b6020606492519162461bcd60e51b8352820152600b60248201526a125c1d185b08191959da5b60aa1b6044820152fd5b5091903461027857816003193601126102785780519082600554600181811c90808316928315610ae4575b602093848410811461025b5783885290811561023f5750600114610a8e57505050829003601f01601f191682019267ffffffffffffffff8411838510176101d657508291826101d2925282611059565b600587529192508591837f036b6384b5eca791c62761152d0c79bb0604c104a5fb6f4eb0703f3154bb3db05b838510610ad057505050508301013880806101a0565b805488860183015293019284908201610aba565b91607f1691610a3e565b5091903461027857816003193601126102785780519082600854600181811c90808316928315610bbf575b602093848410811461025b5783885290811561023f5750600114610b6957505050829003601f01601f191682019267ffffffffffffffff8411838510176101d657508291826101d2925282611059565b600887529192508591837ff3f7a9fe364faab93b216da50a3214154f22a0a2b415b23a84c8169e8b636ee35b838510610bab57505050508301013880806101a0565b805488860183015293019284908201610b95565b91607f1691610b19565b5050346102785781600319360112610278576020906009549051908152f35b50503461027857816003193601126102785760209060ff600d541690519015158152f35b505034610278578160031936011261027857905490516001600160a01b039091168152602090f35b505034610278578160031936011261027857602090600a549051908152f35b503461015257602036600319011261015257356001600160a01b0381169081900361015257818360ff92602095526010855220541690519015158152f35b503461015257826003193601126101525782546001600160a01b031690610cb93383146110e6565b60ff600d5416610d3d57600c54421115610cf0575082808080934790828215610ce7575bf115610932575080f35b506108fc610cdd565b608490602084519162461bcd60e51b8352820152602160248201527f45746b696e6c696b206269746d6564656e20706172612063656b696c656d657a6044820152602160f81b6064820152fd5b608490602084519162461bcd60e51b8352820152602760248201527f45746b696e6c696b20697074616c206564696c6d69732c20706172612063656b604482015266696c656d657a2160c81b6064820152fd5b505034610278578160031936011261027857602090600b549051908152f35b5091903461027857816003193601126102785780519082600254600181811c90808316928315610e80575b602093848410811461025b5783885290811561023f5750600114610e2a57505050829003601f01601f191682019267ffffffffffffffff8411838510176101d657508291826101d2925282611059565b600287529192508591837f405787fa12a823e0f2b7631cc41b3ba8828b3321ca811111fa75cd3aa3bb5ace5b838510610e6c57505050508301013880806101a0565b805488860183015293019284908201610e56565b91607f1691610dda565b5091903461027857816003193601126102785780519082600354600181811c90808316928315610f5b575b602093848410811461025b5783885290811561023f5750600114610f0557505050829003601f01601f191682019267ffffffffffffffff8411838510176101d657508291826101d2925282611059565b600387529192508591837fc2575a0e9e593c00f959f8c92f12db2869c3395a3b0502d05e2516446f71f85b5b838510610f4757505050508301013880806101a0565b805488860183015293019284908201610f31565b91607f1691610eb5565b849150833461015257826003193601126101525782600180549081811c9080831692831561104f575b602093848410811461025b578388529081156110335750600114610fde57505050829003601f01601f191682019267ffffffffffffffff8411838510176101d657508291826101d2925282611059565b8087529192508591837fb10e2d527612073b26eecdfd717e6a320cf44b4afac2b0732d9fcbe2b7fa0cf65b83851061101f57505050508301018580806101a0565b805488860183015293019284908201611009565b60ff1916878501525050151560051b84010190508580806101a0565b91607f1691610f8e565b6020808252825181830181905290939260005b82811061108e57505060409293506000838284010152601f8019910116010190565b81810186015184820160400152850161106c565b156110a957565b60405162461bcd60e51b815260206004820152601560248201527445746b696e6c696b20697074616c206564696c646960581b6044820152606490fd5b156110ed57565b60405162461bcd60e51b81526020600482015260086024820152672cb2ba35b4b9b4bd60c11b6044820152606490fdfea26469706673582212205bebe3dd6003c96f85f6c3dca074614dd1f4ca16e6b99676ff422bfc6292df9164736f6c63430008130033405787fa12a823e0f2b7631cc41b3ba8828b3321ca811111fa75cd3aa3bb5acea66cc928b5edb82af9bd49922954155ab7b0942694bea4ce44661d9a8736c688b10e2d527612073b26eecdfd717e6a320cf44b4afac2b0732d9fcbe2b7fa0cf6f652222313e28459528d920b65115c16c04f3efc82aaedc97be59f3f377c0d3f",
  "linkReferences": {},
  "deployedLinkReferences": {},
  "immutableReferences": {},
  "inputSourceName": "project/contracts/EventContract.sol",
  "buildInfoId": "solc-0_8_19-5952d9f21d059ad181bc2f0ac029187f58304bf3"
}